:08000000803102288731DD2F59
:10002A002E3400346400800101310130FE020030B8
:10003A00FF3B7F087E04031900341828FE001200D3
:10004A001E000130FE020030FF3B7F087E040319C8
:10005A000034242870302100990023008C018D017E
:10006A0021008C018D018E018F0190010800F4019D
:10007A00F501701C44287208F4077308F53D013035
:10008A00F235F30D890B45280130F136F00C890B56
:10009A004A2870087104031D3E287508F100740887
:1000AA00F0000800F601F31F6128F209F309F20AC9
:1000BA000319F30AF601F60AF11F6828F009F10993
:1000CA00F00A0319F10A7008710403198F28F5015F
:1000DA00F50AF11B7A280130F035F10D890B7128E8
:1000EA000130F4007408F5076E2871087302031DC5
:1000FA00802870087202031C86287008F2027108B0
:10010A00F33B0130F136F00C890B87280130F502F8
:10011A00031D7A28760803199728F209F309F20AC7
:10012A000319F30A7308F1007208F0000800F601D7
:10013A00F11FA628F009F109F00A0319F10AF601DC
:10014A00F60AF31FB128F209F309F20A0319F30AAE
:10015A000130F4007408F606F701F801700871041A
:10016A000319E028F501F50AF11BC5280130F0351D
:10017A00F10D890BBC280130F4007408F507B92881
:10018A000130F735F80D890BC62871087302031D73
:10019A00D02870087202031CD7287008F20271086E
:1001AA00F33B77140130F136F00C890BD828013073
:1001BA00F502031DC52876080319E828F709F80986
:1001CA00F70A0319F80A7808F1007708F00008001E
:1001DA002000A200A001A1012208F000F1019C3038
:1001EA00F2002230F3007008720786007108733D2E
:1001FA0087000108F4007408A1002208F000F10148
:10020A001C30F2002230F300700872078600710871
:10021A00733D87000108F4007408A0000730F0005D
:10022A007008A3002308031973292208F000F101BA
:10023A002308F200F301F20EF30EF030F305720810
:10024A000F39F304F030F2057208F03EF400FF3083
:10025A00733DF5002C30F6002230F700740876075B
:10026A00F8007508773DF90070087807860071086C
:10027A00793D870021350107FA007A08A100220892
:10028A00F000F1012308F200F301F20EF30EF03050
:10029A00F30572080F39F304F030F2057208F03EE4
:1002AA00F400FF30733DF500AC30F6002130F70062
:1002BA0074087607F8007508773DF9007008780722
:1002CA0086007108793D870020350107FA007A080F
:1002DA00A0000130A3022308031D1A2921082200C5
:1002EA008F002000200822008C000800F900F70186
:1002FA00F80176082000A000A1017908073EF00065
:10030A00003003180130F1001230F2000030F3001F
:10031A0080313C208131AC302000A2002230A30081
:10032A0070082207A4007108233DA50020082407AD
:10033A0086002108253D87000108A6002608F80046
:10034A007608A000A10179080F3EF00000300318DA
:10035A000130F1001230F2000030F30080313C200D
:10036A008131AC302000A2002230A300700822079D
:10037A00A4007108233DA50020082407860021084F
:10038A00253D87000108A6002608F7000730A000CF
:10039A002008FA007A0803192D2A7608A000A1017C
:1003AA0079087A07A200A301A30D2208FF3EF000F4
:1003BA00FF30233DF1001230F2000030F3008031AB
:1003CA003C208131AC302000A4002230A500700806
:1003DA002407A6007108253DA700200826078600E5
:1003EA002108273D870078350107A8002808F8006A
:1003FA007608A000A10179087A07A200A301A30D3B
:10040A002208073EF0000030233DF1001230F200CE
:10041A000030F30080313C208131AC302000A40050
:10042A002230A50070082407A6007108253DA70000
:10043A002008260786002108273D8700773501070F
:10044A00A8002808F7000130FA027A08031DD22909
:10045A00780822008F0077088C00080000340134E5
:10046A0001340134003401340134003400340134DD
:10047A0001340134003400340034003400340134CF
:10048A0000340034003401340034013400340034C0
:10049A0001340034003400340034003400340134B0
:1004AA00013400340034013400340134003400349F
:1004BA000134003400340034003400340034013490
:1004CA000034003400340134003401340034003480
:1004DA000134003400340034003400340034013470
:1004EA000034003400340134003401340034003460
:1004FA000134003400340034003400340034013450
:10050A00013401340034013400340134003400343D
:10051A000134003400340034003400340034003430
:10052A000034003400340034003400340034003421
:10053A000034003400340034003400340034003411
:10054A000034003400340034003400340034003401
:10055A0000340034003400340034003400340034F1
:10056A0000340034003400340034003400340034E1
:10057A0000340034003400340034003400340134D0
:10058A0000340134003400340134003400340134BE
:10059A0000340134003400340034003400340134AF
:1005AA00013401340034013400340134003401349C
:1005BA00013401340034003400340034003401348E
:1005CA00013401340034013400340134003401347C
:1005DA00013401340034003400340034003401346E
:1005EA00003401340034013400340134003401345D
:1005FA00003401340034003400340034003401344F
:10060A00003401340034013400340134003401343C
:10061A00003401340034003400340034003401342E
:10062A00003401340034003401340034003401341D
:10063A00003401340034003400340034003400340F
:10064A000034003400340034003400340034003400
:10065A0000340034003400340034003480312F2058
:10066A0083312000B801123038020318742BB90103
:10067A001230390203186C2B3908AE00AF01380862
:10068A00B000B1013008F0003108F1001230F20078
:10069A000030F30080313C208331AC302000B200BE
:1006AA002230B30070083207B4007108333DB50038
:1006BA002E08340786002F08353D87008101013056
:1006CA00AE002E08B90712303902031C412B013043
:1006DA00AE002E08B80712303802031C3C2BBB01AF
:1006EA00BC010830AE002E08F9000230AF002F0816
:1006FA00FA00FB01FB0A00308431662483312200B0
:10070A008F018C0110119014901000308031ED206F
:10071A00833104302000AF001C30AE00AE0B932BA7
:10072A00AF0B932B0000220010152000B601B70171
:10073A003708803AAE0080302E02031DA62B0F30F8
:10074A0036020318842B22008F018C01901490101A
:10075A0020003608013E8031ED208331043020002C
:10076A00AF001C30AE00AE0BB82BAF0BB82B00009D
:10077A0001302000B6070030B73D9D2B22008F01C3
:10078A008C0110119014901002302000AE002E0837
:10079A00F600013081317B21833104302000AF0023
:1007AA001C30AE00AE0BD72BAF0BD72B000001309D
:1007BA002000BB070030BC3D9630F0000030F1004D
:1007CA003C08F3003B08F20080315720833170085F
:1007DA007104031D3F2C08302000AE002E08F900DA
:1007EA000230AF002F08FA00FB019630F00000300B
:1007FA00F1003C08F3003B08F20080319C20833171
:10080A007008FF3E84316624833108302000AE0030
:10081A002E08F9000230AF002F08FA00FB01FB0A8C
:10082A009630F0000030F1003C08F3003B08F2007B
:10083A0080319C208331700884316624833196305C
:10084A00F0000030F10020003C08F3003B08F20001
:10085A0080319C2083317108803A2000AE008030BC
:10086A002E02031D3A2C12307002031C3F2C20006A
:10087A00BB01BC01220010152000BA010F303A0258
:10088A000318C32B22008F018C01901490102000B2
:10089A003A08023EAE002E08F600013081317B2173
:1008AA00833104302000AF001C30AE00AE0B5B2C4D
:1008BA00AF0B5B2C000001302000AE002E08BA07F7
:1008CA00432CFC007B03031D3F2E79082000A00067
:1008DA00A1017C08A200A3012208F0002308F1006C
:1008EA001230F2000030F30080313C208431AC3009
:1008FA002000A4002230A50070082407A600710871
:10090A00253DA70020082607A8002108273DA900A1
:10091A002808860029088700013081007C08A00089
:10092A00A1012008F0002108F1001230F200003085
:10093A00F30080313C2084317908013E2000A20076
:10094A00003003180130A300AC30A4002230A50007
:10095A0022082407A6002308253DA70070082607B9
:10096A00A8007108273DA9002808860029088700E1
:10097A00013081007C08A000A1012008F0002108B4
:10098A00F1001230F2000030F30080313C20843153
:10099A007908023E2000A200003003180130A300AB
:1009AA00AC30A4002230A50022082407A6002308A0
:1009BA00253DA70070082607A8007108273DA90051
:1009CA002808860029088700013081007C08013E3A
:1009DA00F000003003180130F1001230F20000304C
:1009EA00F30080313C2084317908023E2000A000C7
:1009FA00003003180130A100AC30A2002230A3005D
:100A0A0020082207A4002108233DA5007008240716
:100A1A00A6007108253DA70026088600270887003A
:100A2A00013081007C08023EF000003003180130DA
:100A3A00F1001230F2000030F30080313C208431A2
:100A4A007908023E2000A000003003180130A100FE
:100A5A00AC30A2002230A30020082207A4002108FB
:100A6A00233DA50070082407A6007108253DA700AC
:100A7A002608860027088700013081007C08023E8C
:100A8A00F000003003180130F1001230F20000309B
:100A9A00F30080313C2084317908013E2000A00017
:100AAA00003003180130A100AC30A2002230A300AC
:100ABA0020082207A4002108233DA5007008240766
:100ACA00A6007108253DA70026088600270887008A
:100ADA00013081007908A000A1017C08023EF000E3
:100AEA00003003180130F1001230F2000030F30038
:100AFA0080313C208431AC302000A2002230A30097
:100B0A0070082207A4007108233DA50020082407C5
:100B1A00A6002108253DA700260886002708870089
:100B2A00013081007908A000A1017C08033EF00091
:100B3A00003003180130F1001230F2000030F300E7
:100B4A0080313C208431AC302000A2002230A30046
:100B5A0070082207A4007108233DA5002008240775
:100B6A00A6002108253DA700260886002708870039
:100B7A00013081007908A000A1017C08043EF00040
:100B8A00003003180130F1001230F2000030F30097
:100B9A0080313C208431AC302000A2002230A300F6
:100BAA0070082207A4007108233DA5002008240725
:100BBA00A6002108253DA7002608860027088700E9
:100BCA00013081007C08043EF00000300318013037
:100BDA00F1001230F2000030F30080313C20843101
:100BEA007908013E2000A000003003180130A1005E
:100BFA00AC30A2002230A30020082207A40021085A
:100C0A00233DA50070082407A6007108253DA7000A
:100C1A002608860027088700013081007C08043EE8
:100C2A00F000003003180130F1001230F2000030F9
:100C3A00F30080313C207908023E2000A0000030F9
:100C4A0003180130A100AC30A2002230A300200812
:100C5A002207A4002108233DA50070082407A60046
:100C6A007108253DA700260886002708870001305D
:100C7A008100080079082000A000A1017C08A200D8
:100C8A00A3012208F0002308F1001230F20000301C
:100C9A00F30080313C208431AC302000A4002230A3
:100CAA00A50070082407A6007108253DA7002008A2
:100CBA00260786002108273D870081017C08A000BD
:100CCA00A1012008F0002108F1001230F2000030E2
:100CDA00F30080313C2084317908013E2000A200D3
:100CEA00003003180130A300AC30A4002230A50064
:100CFA0022082407A6002308253DA7007008260716
:100D0A0086007108273D870081017C08A000A101A7
:100D1A002008F0002108F1001230F2000030F30040
:100D2A0080313C2084317908023E2000A200003044
:100D3A0003180130A300AC30A4002230A500220819
:100D4A002407A6002308253DA70070082607860069
:100D5A007108273D870081017C08013EF0000030C0
:100D6A0003180130F1001230F2000030F300803134
:100D7A003C2084317908023E2000A000003003188C
:100D8A000130A100AC30A2002230A30020082207C3
:100D9A00A4002108233DA5007008240786007108D5
:100DAA00253D870081017C08023EF00000300318CF
:100DBA000130F1001230F2000030F30080313C20A3
:100DCA0084317908023E2000A00000300318013067
:100DDA00A100AC30A2002230A30020082207A40000
:100DEA002108233DA5007008240786007108253DC7
:100DFA00870081017C08023EF000003003180130B0
:100E0A00F1001230F2000030F30080313C208431CE
:100E1A007908013E2000A000003003180130A1002B
:100E2A00AC30A2002230A30020082207A400210827
:100E3A00233DA5007008240786007108253D870018
:100E4A0081017908A000A1017C08023EF00000306F
:100E5A0003180130F1001230F2000030F300803143
:100E6A003C208431AC302000A2002230A30070085C
:100E7A002207A4007108233DA50020082407860044
:100E8A002108253D870081017908A000A1017C087D
:100E9A00033EF000003003180130F1001230F20076
:100EAA000030F30080313C208431AC302000A200B5
:100EBA002230A30070082207A4007108233DA50070
:100ECA002008240786002108253D8700810179082A
:100EDA00A000A1017C08043EF00000300318013094
:100EEA00F1001230F2000030F30080313C208431EE
:100EFA00AC302000A2002230A30070082207A40010
:100F0A007108233DA5002008240786002108253DF5
:100F1A00870081017C08043EF0000030031801308C
:100F2A00F1001230F2000030F30080313C208431AD
:100F3A007908013E2000A000003003180130A1000A
:100F4A00AC30A2002230A30020082207A400210806
:100F5A00233DA5007008240786007108253D8700F7
:100F6A0081017C08043EF000003003180130F100D2
:100F7A001230F2000030F30080313C207908023E42
:100F8A002000A000003003180130A100AC30A200FC
:100F9A002230A30020082207A4002108233DA5002F
:100FAA007008240786007108253D87008101080022
:100FBA003330840082308500AC30860021308700CF
:100FCA000130FF0000308031232087318031152025
:100FDA008731BD00803116208731BE00AC308400D5
:100FEA00223085004430FE000130FF008031172096
:060FFA0020008331332BBF
:020000040001F9
:04000E0084C9FFDDC5
:00000001FF
